:100000004071002059A40100EB08030045A4010041
:1000100045A4010045A4010045A401000000000022
:1000200000000000000000000000000021A6010008
:100030001101000000000000EDA5010045A4010031
:1000400061A80100C143030061A8010061A801008B
:1000500061A8010061A8010061A8010061A8010078
:100060009143030061A8010061A80100AB430300B4
:1000700061A8010061A8010061A8010061A8010058
:1000800061A8010061A8010061A8010061A8010048
:1000900061A8010061A8010061A8010061A8010038
:1000A00061A8010061A8010061A8010061A8010028
:1000B00061A8010061A8010061A8010061A8010018
:1000C00061A8010061A8010061A8010061A8010008
:1000D00061A8010061A8010061A8010061A80100F8
:1000E00061A8010061A8010061A8010061A80100E8
:1000F00061A8010061A8010061A8010061A80100D8
:100100004A4C494E4B4D4F4E48414E444C4552008F
:1001100000B534F09CFE5DF804EB134B02E0586828
:100120000003FCD4586840F40020586000B534F057
:100130008FFE5DF804EB0C4B5868000DF6D2186882
:10014000010A0006000E002812D0022818D002D39F
:10015000032814D0E6E7586820F40020586000B562
:1001600034F074FE00BD00BFF8ED00E088ED00E063
:1001700064201860586840F400205860CFE77DE0A4
:100180005FEADE022CBFEFF30982EFF30882042955
:1001900002D252F821006BE0052901D2204667E027
:1001A000062901D2284663E0072901D230465FE0E4
:1001B000082901D238465BE0092901D2404657E0C0
:1001C0000A2901D2484653E00B2901D250464FE09C
:1001D0000C2901D258464BE00E2901D2106947E0A4
:1001E0000F2901D2506943E0102901D290693FE004
:1001F000112901D2D0693BE012290ED2EFF3088019
:100200005FEADE0131D25FEA5E112CBF2030683038
:10021000D169490928BF04302AE0132905D2EFF338
:1002200009805FEADE0120D3EDE714291CD200200B
:10023000EFF310821043EFF3118212021043EFF339
:10024000138212041043EFF314825FEADE0128BF29
:1002500042F002025FEA5E112CBF22F0040242F07B
:1002600004021206104303E000E001E00020FFE773
:100270001860586840F40020586050E7586840F40F
:100280000020586058680003FCD418685FEADE025A
:100290002CBFEFF30982EFF30882042902D242F85F
:1002A000210061E0052901D204465DE0062901D262
:1002B000054659E0072901D2064655E0082901D232
:1002C000074651E0092901D280464DE00A2901D2B2
:1002D000814649E00B2901D2824645E00C2901D232
:1002E000834641E00E2901D210613DE00F2901D281
:1002F000506139E0102901D2906135E0112901D215
:10030000D06131E0122900D22EE0132900D22BE077
:10031000142927D20106090E81F310880104090E61
:1003200081F311880102090E81F31388010E8808F8
:100330002CBF4EF0040E2EF0040E21F00201C8086E
:100340002CBF2EF0100E4EF0100EEFF31480C008EC
:100350002CBF41F0040121F0040181F31488BFF3A4
:100360006F8F01E0FFE7FFE7DCE600BF53B94AB952
:10037000002908BF00281CBF4FF0FF314FF0FF30AD
:1003800000F00CB8ADF1080C6DE904CE10F0B0FB34
:10039000DDF804E0DDE9022304B07047704700BFD8
:1003A0002DE9F00791E8F807B2E802105B1854EB6A
:1003B0000C04B2E802104D4156EB0C06B2E80210F4
:1003C0004F4158EB0C08B2E8021059EB01095AEB07
:1003D0000C0A80E8F80780410130BDE8F00770475B
:1003E0002DE9F00791E8F807B2E802105B1A74EB08
:1003F0000C04B2E802108D4176EB0C06B2E8021054
:100400008F4178EB0C08B2E8021079EB01097AEB26
:100410000C0A80E8F80780414042BDE8F0077047C9
:100420002DE9F007524290E87800B1E880071740C4
:10043000DB1918EA020854EB080419EA020955EB23
:1004400009051AEA020A56EB0A0678C090E8780015
:10045000B1E8800717407B4118EA020854EB080412
:1004600019EA020955EB09051AEA020A56EB0A06CF
:1004700078C080410130BDE8F00770472DE9F007F2
:10048000524290E87800B1E880071740DB1B18EA79
:10049000020874EB080419EA020975EB09051AEA67
:1004A000020A76EB0A0678C090E87800B1E8800787
:1004B0001740BB4118EA020874EB080419EA020964
:1004C00075EB09051AEA020A76EB0A0678C0804144
:1004D0004042BDE8F00770472DE9F00152424FF06D
:1004E000040890E8300091E8C000A31B1340E41A10
:1004F000F618EB1B1340ED1AFF1830C0C0C1B8F15D
:100500000108EED1BDE8F001704700BF00B592E8E8
:10051000DC072DE9DC07B1E8805702B4A7FB0251E4
:100520000A95A8FB020BE7FB6310E9FB62B00B9195
:10053000A8FB0351EAFB6201E7FB64B5E7FB660534
:10054000E8FB6615CDF830B0A9FB03B6EAFB6316ED
:10055000ECFB6356E8FB640BE9FB641BEAFB645BA2
:10056000ECFB646B0D90ACFB0230059CEEFB625023
:10057000E9FB6460EAFB64B0E7FB6431E8FB6451CB
:10058000069CE8FB6461E9FB64B1EAFB64010E933D
:10059000A7FB0432079CE7FB6462E8FB64B2E9FB5B
:1005A0006402EAFB6412049CE9FB6453EAFB6463A3
:1005B000089CE7FB64B3E8FB6403E9FB6413EAFB14
:1005C00064230F955DF8049B99E80006DDF8008030
:1005D000A9FB0854EAFB68B4DDF81080ECFB680462
:1005E000EEFB6814E9FB6824EAFB6834DDF804805C
:1005F000EEFB6865E9FB68B5EAFB6805DDF8148089
:10060000ECFB6815EEFB6825E9FB6835EAFB6845FD
:100610000F96DDF80880AEFB0876E9FB6806EAFB7A
:100620006816DDF81880ECFB6826EEFB6836E9FBFF
:100630006846EAFB6856DDF80C80ECFB68B7EEFB19
:100640006807E9FB6817EAFB6827DDF81C80ECFB0C
:100650006837EEFB6847E9FB6857EAFB686708B054
:1006600000BD00BF2DE9F14F87B0FFF74FFFDDF868
:100670001C8008F1200888E8FF00FFBC87E87F089D
:10068000BDE8F08F00B591E89857A3FB03520195A0
:10069000A3FB0401E3FB6420E3FB67100292A3FBCE
:1006A0000752E3FB6802E4FB6415E3FB6805E3FB28
:1006B00069250391A4FB07B6E3FB6926E3FB6A56B1
:1006C000E4FB670BE4FB682BE3FB6A5BE3FB6C6B0F
:1006D0000490A4FB0810E4FB6950E3FB6C60E3FBAF
:1006E0006EB0E7FB6721E4FB6951E4FB6A61E3FB61
:1006F0006EB1E4FB6E010592A7FB0832E4FB6A626F
:10070000E4FB6CB2E4FB6E02E7FB6E12E7FB68539E
:10071000E7FB6963E4FB6CB3E7FB6C03E7FB6E1379
:10072000E8FB6E230695A7FB0954E7FB6AB4E7FBD9
:100730006C04E8FB6C14E8FB6E24E9FB6E34E8FB08
:100740006865E7FB6AB5E8FB6A05E8FB6C15E9FB41
:100750006C25E9FB6E35EAFB6E450796A8FB09762A
:10076000E8FB6A06E9FB6A16E9FB6C26EAFB6C36D5
:10077000EAFB6E46ECFB6E56E8FB69B7E9FB6907DE
:10078000E9FB6A17EAFB6A27EAFB6C37ECFB6C476C
:10079000ECFB6E57EEFB6E6700BD00BF2DE9F14F1D
:1007A00087B0FFF76FFFDDF81C8008F1200888E8AC
:1007B000FF00FFBC87E87F08BDE8F08F30B44FF042
:1007C000000310F8014B11F8015B013A84EA0504BB
:1007D00043EA0403F5D1A3F101034FEAD37030BC1F
:1007E000704700BF4FF0000310F8012B013943EAB6
:1007F0000203F9D1A3F101034FEAD370704700BFA0
:1008000030B411F8014B12F8015B6C4000F8014B59
:10081000013BF6D130BC70472DE9F00791E8F807AD
:10082000B2E802105B1854EB0C04B2E802104D4120
:1008300056EB0C06B2E802104F4158EB0C08B2E838
:10084000021059EB01095AEB0C0A8941B3F1FF334D
:1008500074F1FF3475F1FF3576F1000677F100078A
:1008600078F1000879F101097AF1FF3A51F10001BC
:100870005B184C414D4156F1000657F1000758F105
:10088000000859EBD1795AEB010A80E8F807BDE876
:10089000F00770472DE9F00791E8F807B2E8021079
:1008A0005B1A74EB0C04B2E802108D4176EB0C0677
:1008B000B2E802108F4178EB0C08B2E8021079EB35
:1008C00001097AEB0C0A89415B184C414D4156F104
:1008D000000657F1000758F1000859EBD1795AEB9F
:1008E000010A80E8F807BDE8F007704718EB040834
:1008F00059EB05095AEB060A5BEB070B5FF0000C9E
:100900004CF1000C18EB050859EB06095AEB070AE5
:100910005BEB070B50EB0C005FF0000C51EB0C0194
:1009200052EB0C0263414CF1000CB8EB070879F173
:1009300000097AF1000A7BEB040BA841B141A24106
:10094000B3416CF1000CBBEB050BB041B941AA41BE
:10095000BB416CF1000C4CF001068CF0020718EB67
:10096000060859EB6C095AEB6C0A7BEB6C0B70EBCD
:100970006C0471EB6C0572EB670653EB6C076CEB68
:100980006C0C18EB0C0059EB0C015AEB0C025BF1F0
:10099000000354F1000455F1000556EBDC7657EBEB
:1009A0000C0770472DE9F14F87B0FFF7AFFDDDF879
:1009B0001080DDF81490DDF818A0FFF797FFBDE870
:1009C000000FFFF793FF03B05DF8048B88E8FF008A
:1009D000BDE8F08F2DE9F14F87B0FFF753FEDDF84A
:1009E0001080DDF81490DDF818A0FFF77FFFBDE858
:1009F000000FFFF77BFF03B05DF8048B88E8FF0072
:100A0000BDE8F08F1FB50B4B01934FF4B073ADF8F9
:100A1000083008238DF80A3083788DF80B3001A94F
:100A2000FF2303208DF80C3000F00CFD05B05DF8BD
:100A300004FB00BF0F4F01001FB50B4B01934FF498
:100A40008063ADF8083008238DF80A3043788DF8BC
:100A50000B3001A9002302208DF80C3000F0F2FCCD
:100A600005B05DF804FB00BFC7530100F7B50446AD
:100A70000D4641B9124B5B78012B04D0019101A8BE
:100A80000121FFF7F3FF23680E4E0F4F0733002DB0
:100A900023F0070323600CBF2046002000F0AAFCCF
:100AA000002556F8043B0BB13846984701350F2D09
:100AB000F7D100F017FD23680344236003B0F0BDB5
:100AC000880B0020540000208A0B00202DE9F04301
:100AD00085B0974C0390064603A80D46FFF7C6FF66
:100AE000A778E3784FF000091F44FFB2C8465FFAC9
:100AF00089F39F4200F209810398033020F003003C
:100B0000002D0390414618BF002000F037FE039BE4
:100B100021791844039081B16379627C033020F01D
:100B20000300002D1A440390A389D2B218BF0020FD
:100B300000F098FE039B034403937E4F7B68CBB188
:100B4000E17AB9B194F828300398002B00F107003E
:100B500014BF4023252320F0070014BF4FF48172F7
:100B60002822002D039018BF002003F0C5F9039B35
:100B700003440393A17B91B123791BB97B6873B1C3
:100B8000E37A63B10398073020F00700002D03904B
:100B900018BF002006F032F9039B03440393664B11
:100BA0001B6873B1A17961B10398E27B033020F037
:100BB0000300002D039018BF00209847039B0344B7
:100BC00003935E4B1B686BB1217C59B103980330D2
:100BD00020F00300002D039018BF00209847039BCE
:100BE00003440393564BD3F80080B8F1000F11D0A3
:100BF000617C79B10398237D0093033020F00300DA
:100C0000002DE37C0390A27C18BF0020C047039B0B
:100C100003440393FB697BB1A17969B10398A27D79
:100C2000033020F00300002D039018BF002000F0D7
:100C300007FF039B0344039394F8210080B1039AB8
:100C4000E37E217E0332194422F0070242F00402BF
:100C50002B46C9B2039200F033FF039B0344039376
:100C600094F8221000295AD0039FA28C0737002D38
:100C700027F007070CBF38460020039710F0B8FF95
:100C8000039B034403931DB9A18C38460BF058FD18
:100C9000217F002945D094F82030002B41D00398C3
:100CA000E28B073020F00700002D02F124020390B0
:100CB00092B218BF002010F09BFF039FA37E217EFD
:100CC0003A180332194422F0070242F004022B467C
:100CD00094F820000392C9B200F0E4FE039B0344A1
:100CE000039335B9E28B217F083292B238460BF07C
:100CF00041FDE36A23B1039B05B9E3622833039303
:100D00000398801B05B0BDE8F083A37A627A217A4C
:100D1000E07910F03FFF09F101098044E7E60F4652
:100D2000B1E7002DE5D12A4629462846DFE700BF76
:100D3000880B002054000020900000209800002024
:100D4000940000208FB572B6194B1D6BE5B9BFF347
:100D50004F8F1849184BCA6802F4E0621343CB6006
:100D6000BFF34F8F00BFFDE7B4FBF6F4DAB20133F7
:100D7000002CF9D102F110036B440A2603F80C4C45
:100D800032B901A8A847E2E7044600230A26EDE7A6
:100D9000531E04AC54FA83F4DAB2C3B2B3FBF6F7D1
:100DA00006FB1733303304F80C3CB0FBF6F0E7E7F2
:100DB000880B002000ED00E00400FA051FB5164C7A
:100DC000A37A8DF80930637A8DF80830237AADF86C
:100DD0000C3002A8E379ADF80A3004F011F918B12B
:100DE000DB210320FFF7AEFF012301A88DF80430BB
:100DF00012F0F3F808B1DF21F3E7207D04F030F9B9
:100E000008B1E221EDE7E07C04F024F908B1E32128
:100E1000E7E704B010BD00BF880B002038B50546D9
:100E2000002840D00FF0B2F910B94FF0FF3038BDB4
:100E30000BF0B0FFB0F5FA7FF7D81D4C1D482563C5
:100E4000002500F079FA29463C221B4865700FF016
:100E50001FFD26222946A01C257084F82850E56233
:100E60000FF016FD1B22E27140F21B32228140F28C
:100E7000023240F2011362811F226380A2810123AA
:100E80004FF402722371E281A37544F60112FB2331
:100E90006282A384EFF3108472B600F021FE2CB9B5
:100EA00062B62046C3E76FF01500C0E72846BEE7EC
:100EB000880B0020BD0D00005400002010B5002854
:100EC00040F0A380544C6378022B00F09B80A1B1CA
:100ED000002A6CD00139142900F29780DFE801F074
:100EE0000B181B2B535B74315E616F373D4A4F7992
:100EF0007C898C8F81001378A37001210020FFF77B
:100F0000E5FDB0F5803F80F283800123637010BD62
:100F10001378E370F1E79378002B48D0D378002B57
:100F200045D013781A2B42D953781A2B3FD913681E
:100F3000C4F80730E1E713786279934237D323711D
:100F4000DBE713782279934231D86371D5E71378C0
:100F5000227993422BD86374CFE713783BB353784D
:100F6000013BDBB2F82B22D8138863822B4B92789B
:100F70009A70C2E71078607509F034FBBDE713780A
:100F8000ABB1A375B9E71378254A52680AB1012BB2
:100F90000DD9E372B1E71388A381AEE71378A3718B
:100FA000ABE71F491378C96921B9012B04D86FF049
:100FB0001500ACE7002BFAD01378E3739DE71378A4
:100FC000082BF4D8237498E71388FF2BEFD8A3736A
:100FD00093E71378E37590E713780E2BE7D8237621
:100FE0008BE713680F49E36153684B6013890B81EA
:100FF00083E71378637680E71378E3767DE71378E9
:10100000A3767AE74FF0FF3081E76FF02C007EE7A0
:101010006FF00B007BE700BF880B00209A0B0020CD
:1010200054000020A40B002070B50D460646E8B120
:10103000E1B111F0070419D100F0B2F8C8B130469F
:101040000FF018FA0C4E214686F834002846FFF7B8
:101050003DFD14F098FA96F83400F16A04F07AF83D
:10106000FFF7ACFE02237370204670BD6FF01500D1
:10107000FBE74FF0FF30F8E7880B002010B5074C76
:101080006378022B05D104F081F894F834000FF056
:101090000DFA10F0E0FE0020607010BD880B0020FB
:1010A00050B1074B03F1140253F8041B40F8041B22
:1010B0009342F9D1002070476FF01500704700BFD0
:1010C000A4C2030010B5064B5C7834B904F00CF8E8
:1010D000044B054ADA60204610BD4FF0FF30FBE7B5
:1010E000880B002054000020050A000010B5064BB4
:1010F0005C7834B904F00CF8044B054A9A60204639
:1011000010BD4FF0FF30FBE7880B0020540000209B
:10111000390A000010B5054B5C781CB903F0A6FF36
:10112000204610BD4FF0FF30FBE700BF880B0020CA
:1011300010B5054B5C781CB911F098FF204610BD26
:101140004FF0FF30FBE700BF880B002010B5054BC8
:101150005C781CB911F08DFF204610BD4FF0FF30B8
:10116000FBE700BF880B002010B5054B5C781CB96D
:1011700011F082FF204610BD4FF0FF30FBE700BFAB
:10118000880B0020024B02681A600020704700BFE5
:10119000C00B0020014B1B68184700BFC00B00208C
:1011A000024B1868003818BF01207047C00B0020A0
:1011B00073B52E4D031D04462B60284604F0BAFE7D
:1011C0000228064606D1294920460FF00EFE304679
:1011D00002B070BD042842D12B78092B0AD0252BF0
:1011E0001ED0294620460FF065FEB0F5817F2DD335
:1011F000722112E005213E200FF0CAFD0028F0D137
:10120000EB782A7901A943EA02236846ADF8003059
:1012100010F050FA0028D0D053210820FFF792FD9B
:101220001A213E200FF0B4FD0028DAD16B68C3F319
:101230000F23ADF804306946112301A88DF806305C
:1012400010F062FA0028B8D06521E6E70028B4D093
:10125000A17820780FF09CFD0028B8D1ADE70828D0
:10126000B5D1024920460FF0EFFDB0E7C40B0020D6
:10127000074B4FF0FF3141F6FF72C3E900120549F9
:101280000022C1E900221F21C3E90212704700BFFA
:1012900000000020C80C00203F280CD801380B4B60
:1012A000C0F3421200F01F0053F8223023FA00F07E
:1012B00000F001007047FF2806D04038C0F342120A
:1012C000034B00F01F00EFE70120704700000020F3
:1012D000C80C00200146074B006849681A4603C243
:1012E00040F48C221A6041F0107242F4FF625A609E
:1012F000704700BF000000200246024B00685168A2
:1013000003C37047C80C00200246024B00685168B6
:1013100003C37047080000200138064BC0F3421297
:1013200003EB820300F01F009B6823FA00F000F03B
:101330000100704700000020014B1860704700BF9B
:10134000D00C002010B5FFF793FF11F0A3F8034B6A
:101350001B68044603B19847204610BDD00C0020FE
:101360000B880288F0B5C3F30E049EB204F1180393
:10137000C57CC35A05352A442B4497B213FA82F32D
:10138000013B4288B3FBF7F313FB07439BB29A423E
:10139000044A93BF22EA0603324013439BB20B80F8
:1013A000F0BD00BF0080FFFF10B5114B00EB410402
:1013B0001A786389B3FBF2F303FB0223013A1A4460
:1013C000B2F5706F027928BF00231A448378B2FB0C
:1013D000F3F0194403FB1020091AB1FBF3F003FBEF
:1013E000101313446FEA43436FEA5343638110BD04
:1013F000D40C002010B5124BE0B15A78022A04D068
:1014000040F22B111720FFF79DFC03225A7002684F
:1014100012F0070102D04FF49871F3E75C685A604C
:10142000224402609A60BDE810403C2203F10C00A7
:101430000FF02EBA01225A70C3E9010010BD00BF9F
:10144000D40C00202DE9F041254E96F801E00EF075
:10145000FD0CBCF1010F04D040F245111720FFF73D
:1014600071FC91F80680B8F1080F02D940F24711DB
:10147000F4E7CF7997B34546022D726838BF02254D
:101480007B1D5C0002EB43036A1E13446D422B403C
:101490008D884544013DC8F100022A404FF6FE7593
:1014A000AA4202D94FF4A971D8E7BEF1030F12D1B5
:1014B00006EB80001C1BC56815B140F25711CDE743
:1014C000C460A770228084F803C0087A096820717C
:1014D000080CE080218107FB02337360BDE8F081D6
:1014E000D40C00202DE9F047364C6378012B65D0F1
:1014F000032B04D040F267111720FFF723FCD4E937
:1015000001329A4202D04FF4B571F5E72546002327
:1015100005F80C3B1E460E22994655F82200013A6A
:1015200058B190F804808178B8F1FF0F2FD180F87E
:1015300004908E423CBFCEB20123511CEDD103B1C9
:1015400026700E2640F6FF6955F826709FBB013EB7
:10155000FAD2042363700020BDE8F08755F82CE030
:10156000BEF1000F06D09EF804A0C24504BF9EF84D
:1015700002E077440CF1FF3CBCF1000FEEDA394495
:10158000FF2907D903B126704FF48371B4E794465D
:101590000027F1E70771CCE707EB41033846A3F8D2
:1015A0000A90FFF701FF08F10108BB785FFA88F1A4
:1015B0008B42F1D8CBE74FF00008F6E702236068D2
:1015C0006370C9E7D40C0020034B03EB8003D86899
:1015D00000B18078704700BFD40C0020F8B54FF6FA
:1015E000FF730380184B03EB81030546D868B8B13D
:1015F00086780379B3FBF6F206FB1233DBB21946A9
:101600000A1D00EB4202B2F902705488002F09DB78
:101610000131B1FBF6F206FB1211C9B28B42EFD1D8
:101620000020F8BDFF29FBD0C4F30E03C4782B8043
:1016300024B94FF4D9711720FFF784FB5380BDE81C
:10164000F84010F086BA00BFD40C00201D4B03EB0D
:10165000810370B5DC68054644B3030404D54FF438
:10166000E0711720FFF76EFB0146204610F053FA99
:10167000FF28014604D02046BDE8704010F069BA4A
:10168000A078B5FBF0F300FB1353DBB219460A1D3B
:1016900004EB4206B6F90260002E09DB0131B1FB12
:1016A000F0F200FB1211C9B28B42F0D1002070BDE4
:1016B000FF29FBD08B4204EB42021CBF0023E370E6
:1016C0005580D8E7D40C0020094B03EB810310B5FB
:1016D000DC680146204610F01EFAFF28014604D0BF
:1016E0002046BDE8104010F034BA002010BD00BF05
:1016F000D40C0020F8B5104B03EB81030746DC68DF
:101700000146204610F007FAFF28054611D0E6886A
:10171000238953EA064606D00146204610F019FAFE
:1017200001463846B04720462946FFF73DFE0020D7
:10173000F8BD0320FCE700BFD40C002038B50E4BE9
:10174000827903EB82030446D86808B9022038BDC9
:101750008278E1799142F9D24B1CE37100EB4103AD
:101760005D89B3F90A30002BF3DBA58010F0F1F9A5
:1017700020600020EBE700BFD40C002070B50446C9
:1017800010F003000E4603D049211820FFF7DAFAC3
:1017900010F065F9054624B103483146046010F0A5
:1017A0005EF9284670BD00BF1C0D00202DE9F04FEA
:1017B0001E4C85B092462268BDF83CB098468146E2
:1017C000BDF838300D461AB95B211820FFF7BAFA78
:1017D0001A460A21504603930FF0ECFF5A4606467C
:1017E000092140460FF0E6FF31180746206810F047
:1017F00061F9039BC9F8000018B9286005B0BDE87D
:10180000F08F84192C60D9F80000009352463146BD
:101810000A230FF081FF2868CDF838B0092342462B
:10182000394605B0BDE8F04F0FF076BF1C0D002023
:1018300070B50E4604460FF0C6FF054630460FF061
:10184000C2FF044B2A1821461868BDE8704010F00A
:101850005BB900BF1C0D0020014B186810F01DB9CA
:101860001C0D0020F8B511441D4EC9B210F003053F
:10187000317003D04D210920FFF764FA1F2B19D8CE
:101880009B009BB2033323F003039BB208B170604B
:10189000338101EB81047668E2004FF0010C00EB2C
:1018A000C404EFB2B94212D8D01D03FB010020F0EE
:1018B0000700F8BDFF2B4FEA430204D9FF339342E0
:1018C000DFDB93B2DEE77C2AFBDC7C23DAE710B1B6
:1018D00086F800C07460013528361C44E1E700BF7B
:1018E000200D002038B5144A147853680021C8B27E
:1018F000844203D8A8210920FFF724FA18460131B1
:1019000005782833002DF2D000218170012412893E
:10191000447044688161C161920800F12001051D95
:1019200021F8022B994245F8044B1444F8D10023C6
:101930004361037038BD00BF200D00200A4B1B8996
:10194000B3F5FF7F4FEA930006D25A089B1A9BB269
:10195000984238BF18467047B3F5EE6F01D8FF22A2
:10196000F4E740F27263F3E7200D00202DE9F8431D
:101970004B7880460C4602F0040602F0FB07D3B118
:10198000DFB12E4BD4F804901D89B7BB01236370DF
:10199000AD08A761E76104F120034A46211D04F167
:1019A000280023F8025B984241F8042B2A44F8D11E
:1019B0000023636101E0002FE3D0FF23A370002E1A
:1019C00018BF0226A3191B7D032B03D1022F1CBFB6
:1019D0000136F6B2A31901221A7506F10C0204EBC6
:1019E0008606002324F812307268A370C8F800201D
:1019F000A8F804304046BDE8F88300211422617045
:101A0000A0180EF045FFB5F5FF7F0FD26B08ED1A59
:101A1000ADB209EB0502C4F804902584A26063848A
:101A2000C4F80C90A5842261E384C6E7B5F5EE6F97
:101A30004FF0FF03EBD940F27265EAE7200D00207A
:101A40002DE9F74305460C46F720052190460FF097
:101A5000B1FE064685B115F0030703D08F2119208A
:101A6000FFF770F9DFF83890C9F81050A9F81400A2
:101A7000A5B2BBB29D4204D806FB04F003B0BDE89A
:101A8000F083B9F814C0D9F81000CDF8008007FB36
:101A90000C000523F72231460FF03EFE0137E8E740
:101AA000340D002007B5CDE900230B46034902465B
:101AB000081D10F0AAF903B05DF804FB4C0D0020DE
:101AC00013B5064CCDE900230B46024604F108018C
:101AD00004F10C0010F099F902B010BD4C0D00207B
:101AE000134B012200214FF0FF309A60C3F800121F
:101AF000C3F80803C3F80015C3F804259A60C3F8B7
:101B00000803C3F80015C3F804250A490A4A03F577
:101B100080334FF40040C3F80825C1F88000BFF3BC
:101B20004F8FBFF36F8FC1F88001C3F8082570474E
:101B300000F0004000E100E00000F63F8C46382352
:101B400000B50CF8033B054B8E4607CBCEF80300DF
:101B5000CCF80410CCF808205DF804FB6C0D0020D4
:101B600070B5234DE96AAC6A0B7803F00303032BCD
:101B700004F1A8041AD16B8E2A8E0120034342F48B
:101B800000626B8620756B6B2A869847E96A237F13
:101B9000013B18BF012323774B7833B1D4E92232BC
:101BA000013342F10002C4E9223270BD002BEED0B5
:101BB0004B78002BEBD02A8E42F400622A86AA6B67
:101BC000002AF2D0FB2B08D895F83C3063B16B6B40
:101BD0000021BDE870402020184795F83D3043F0C3
:101BE000100385F83D3070BD01230370CFE700BFBF
:101BF000600D002010B5174C09F09AFB08F080FE2C
:101C0000636B208E00219847237E73B9A36A93F8F3
:101C10009E30022B1AD0236C94F83D1094F83E00AD
:101C20009847002384F8443010BD94E8070004F17D
:101C30000C0383E807000849022204F1190012F09E
:101C400069F9A36A93F89E30022BE4D1034805F0AA
:101C50008BF8E0E7600D00203D1B0000840D0020A4
:101C6000034B93F8443003B97047FFF7C3BF00BF7D
:101C7000600D002038B5234D95F8243004460BB193
:101C800001280ED0012913D8EB6C2046984778B173
:101C900095F83D3063B995F8240058B164B100203F
:101CA00038BD6B8E1B07EDD5AB6CDB78022BE9D111
:101CB000012038BD012CF3D195F85030DC06C3F378
:101CC00000110BD50023AA6B7AB1A8B16A8E9207D6
:101CD00012D5AB6CDB78022BEAD1E0E76B6D1B7899
:101CE000C3F30013C3F10103EDE7B5F85820002A50
:101CF000EBD00029DCD0E8E7002BD9D16A8E002A8E
:101D0000CDD0D5E7600D002008B5094B93F84420ED
:101D1000022A07D1DA7A42F00102DA72BDE80840FD
:101D2000FFF768BF4FF40F712720FFF70BF800BFD4
:101D3000600D0020F8B5254CA66A636DE36296F845
:101D4000CC30054606F1A80794F85A000BB10430D0
:101D5000C0B296F87D100DB9FF282ED009F042F8D8
:101D600097F824301BB3E06D09F008FF94F8243095
:101D7000E16DE06A003B18BF012384F87830D7E9B1
:101D80002223C4E91C2308F05FFD3DB996F87D00CD
:101D900010F00C0018BF282009F05AFF96F87C10AC
:101DA000002009F0BDFF022384F84430F8BDE06A4A
:101DB00009F0E4FE08F0A4FDE7E796F87C209142E4
:101DC000D0D009F00FF897F82430CBE7600D002051
:101DD00070B57F4CA56A82B095F8CC20002305F140
:101DE000A8068DF8053094F85A300AB10433DBB2F6
:101DF00010B9FF2B00F0B28095F87C10FF2008F09E
:101E0000F1FFB37E032B00F2DE80DFE803F0021D5A
:101E1000807094F8BA30ADF806306E48A5F86C3092
:101E200003F0AEFB002840F0A180D4F8BC000DF117
:101E300005020DF106010FF0E8FCA06420B196F850
:101E40006130002B00F0A9806348A064F37EDB00C2
:101E500003F00802037803F0F3031343327F920088
:101E600002F00402134303F0EF0203F00303032B19
:101E7000027002D1C378022B12D0D4F8BC000FF04C
:101E80002FFD48B9A06C027802F00303032B07D0A2
:101E900003F09CFB002879D1A06C027842F010027C
:101EA000027096F8233013B14378002B43D109F028
:101EB00065FE08F025FDA66C04F0ACF920B133787E
:101EC00003F00303032B64D095F87D10012009F083
:101ED00027FFA36C414A18889978A4F85000012381
:101EE00084F8C030917084F8443002B070BD394835
:101EF00003F046FB002861D0A06CC3781B2BA5D152
:101F0000012105F1100008F0A3FFA06C9EE7B5F8D1
:101F10006C30D4F8BC00ADF806300DF105020DF1BF
:101F200006010FF072FCA06400288FD140F2D52189
:101F30002720FEF707FFE06D09F020FE94F824103B
:101F4000E06DD6E92023B1FA81F67609A16C84F818
:101F50007860C4E91C2308F077FCACE795F87D3085
:101F600095F87C108B427FF449AF4AE7638EA16CF1
:101F7000626B43F08003802063869047A06C012150
:101F80007175C3781B2B7FF461AFBAE7A06C027840
:101F900086E701200AF09EFE96E79DF805302BB1FA
:101FA000BDF8061011F071FFA06C4FE7038083703D
:101FB000A06C012111F05EFEA06CF1E740F2DE2181
:101FC0002720FEF7BFFE40F2EB212720FEF7BAFEE6
:101FD000600D0020A80D0020E80D0020B00D0020AD
:101FE0002DE9F041434C94F84420A56A012A82B0BF
:101FF00006460F4605F1A8055FFA82F874D12B7DDD
:102000006BB1638E002143F0040363862975636B13
:102010000420984794F824300BB185F81680A16C01
:102020000A7802F00302032A36D04B78EBB1022380
:10203000AB7695F82430F3B1A36A93F87D10D5E917
:102040002223C4E91C2394F8243094F85A20003B3E
:1020500018BF0123013984F8783007293FD8DFE819
:1020600001F03B133E113E3E3E380123AB7695F81E
:102070002430002BE0D106B907BB02B0BDE8F04127
:10208000FFF7B8BD4FF00308002300931A494346F9
:10209000012008F061FBEEE7AB7E63B9638E43F08D
:1020A000020363860220636B9847A16C0B7803F0F0
:1020B0000303032BB9D10323AB76BAE7314630468D
:1020C000FFF7D8FD0028D8D102B0BDE8F041FFF7F6
:1020D00031BE4FF00208D7E74FF00008D4E740F2D6
:1020E000B2310620FEF72EFE40F275412720FEF7A2
:1020F00029FE00BF600D0020C00D002070B50C4B04
:102100000C4C0D4A1A6094F8443063B906460D46EB
:1021100003F0FF02012104F18800227611F0AAFDEC
:102120006665E56570BDDE212720FEF70BFE00BF6A
:102130009C000020600D0020F4290000044A92F861
:10214000443003F0FF000BB9107670470C20704745
:10215000600D0020024B012283F83C20704700BF35
:10216000600D00202DE9F043BA4C85B002AD85E842
:10217000030094F844100C98002940F0D481002A00
:1021800000F0D181002B00F0CE81002800F0CB813F
:1021900001F0FF06206495E80300E36404F12403E2
:1021A00083E80300A56A626384F83C6084F83D60BC
:1021B00084F8C16084F83E6084F8C0606686268634
:1021C00008F0A6FE08F09CFB95F9800008F0C4FF1B
:1021D00005F1A807A86B09F0B5FC286A08F0C2FF52
:1021E00097F8340008F0C8FF94F82430002B6AD028
:1021F00004200EF003FCEA6941F64B539A4294BF67
:102200004D20962008F0C2FDA36A93F8F032002B0F
:1022100040F01D8195F87D10012009F09BF9002800
:1022200064D08D4B186809F093FC6B69C4F8BC301E
:10223000AB69C4F8C43095F88B3023B9D5F8841055
:10224000002940F0C380D7F89000D7F89410D7F851
:102250009820D7F89C30DFF804C2ACE80F00D7F81C
:10226000A030C4F87930D7F8A430CCF80D30A36A88
:1022700094F8241093F8C620A2F12600002938D142
:10228000012803D993F8C700262838D193F83223C0
:1022900093F87C80002A40D0B8F1080F3DD0B8F107
:1022A000040F00F02581082A00F02281042A00F0A2
:1022B0001F81B8F1010F30D0012A14BF4FF002087E
:1022C0004FF0010829E003200EF098FBEA6941F67F
:1022D0004B539A4294BF4D20962008F057FD95F835
:1022E0007C10002009F036F900289AD105B0BDE82D
:1022F000F08301287BD993F8C700262877D0213AAC
:10230000012A40F2CB80242800F0E68093F87C80FC
:10231000B8F1040F08BF4FF0080805F14409414621
:10232000484611F0B1FE414611F07AF9B5F8503047
:1023300095F87D100246934228BF1346484684F81C
:10234000BA3011F067FE95F87D1097F82490B5F833
:102350005880082908BF042111F062F9B9F1000F73
:1023600001D1043080B2404528BF40465FFA80F872
:1023700084F8C88003F04EFF20B1B8F12B0F38BFAE
:102380004FF02B0894F8241084F85A80002957D174
:1023900097F82330002B3AD0012384F87830D7E91E
:1023A0002023C4E91C2395F87C30E86941F64B52A0
:1023B000013B904294BF04200020072B00F29B8039
:1023C000DFE803F01E9E991D999999A0B7F84E2059
:1023D0003B8B93427FF437AFB5F888201344A7F8BE
:1023E0004E3095F88A0001220AF058FC2BE793F84A
:1023F000CE2393F87C80002A7FF44EAF8DE7032133
:1024000000220B4600921549FB2208F0A5F9012095
:10241000FFF7DEFC124BD3F8503523F00803032BF3
:1024200000F086800023C4E90033A3602A88398B3A
:1024300097F8343061802280237105B0BDE8F083C5
:1024400097F8243073B90120FFF774FCE2E708F035
:102450004DFDDFE6600D00209C000020C00D002037
:1024600000100040D7E9220195F87D300122013BA0
:10247000C4E91C0184F87820072B3CD8DFE803F07E
:1024800005443B043B3B3B46032600210091334679
:102490002A494246012008F05FF9D4E724281BD0DE
:1024A00000293FF433AF93F86E2193F87C805007F6
:1024B0001ED412F001032BD193077FF52EAFB8F194
:1024C000080F3FF42AAFB8F1040F11D0B8F1010F93
:1024D00018BF4FF0020820E700293FF417AF93F828
:1024E000751093F86E2193F87C800A405107E0D56F
:1024F0004FF0080811E740F2B2310620FEF722FC47
:1025000001217DE702217BE70126BEE70226BCE729
:10251000B8F1080F3FF401AFB8F1040F14BF9846AB
:102520004FF00808F9E640F24F112720FEF70AFCA9
:1025300040F2F9112720FEF705FC00BFC00D002076
:1025400010B5194C94F84430F3B194F8243093B199
:1025500094F84430022B21D1A36AD3F8080309F080
:1025600045FBA16A91F88B3003F0FF0213B9D1F853
:10257000843063B910BD94F84430012BF1D040F29F
:102580000E212720FEF7DEFBFFF734FBE9E791F889
:102590008A00BDE8104011460AF080BB40F21221CB
:1025A0002720FEF7CFFB00BF600D0020FFF722BB06
:1025B000014B1876704700BF600D0020014B93F867
:1025C000C0007047600D0020024B188EC0F38020C1
:1025D000704700BF600D0020014B93F8C1007047A9
:1025E000600D00202DE9F0411E4FBC6A820782B0C9
:1025F00005460E4604F1A80411D4EB070CD5D4E926
:102600002232217F013342F100020129C4E9223242
:102610000CBF00230123237702B0BDE8F081BB6B20
:10262000DBB1B7F85820F96A1846033291F80180F7
:102630000EF0B6F80DF1020201A9F862D7F8C40055
:102640000FF003FA01980FF0EAF9012230604146D9
:10265000D7F8C4000FF08FF9CFE740F2664127208A
:10266000FEF770FB600D00202DE9F047B24C86B0FC
:102670000023CDE904338DF80F3094F84430A56A77
:10268000022B06460F4605F1A8055FFA83F840F0D5
:10269000A281238E13F0400106D1636B402098473E
:1026A000238E43F040032386002E5AD095F8243021
:1026B000002B40F01881D4F82CA09AF8011089B2B0
:1026C000A4F85810002940F025810023A3639AF84C
:1026D0000000238EE97EC0F3800243F480739142B0
:1026E000238600F0CC80A26A94F8241002F1A80995
:1026F00099F81A20EAB1022A00F05381002389F8E0
:102700001A3021B199F81620002A40F03F8199F83B
:102710001530002B40F0168199F81B30D4F82CA00E
:10272000012B0CBF0023012389F81B309AF800000D
:10273000238E43F4806222862A7FC0F3C0039A422C
:102740004FF0000900F0A28003F064FDC0B19AF8D8
:10275000003003F00303032B12D101200AF0BAFA70
:102760000EE095F82420002A40F0B98043F400736D
:10277000238694F8C130013384F8C1304FF000094A
:1027800095F823305BB394F82430A26AB3FA83F34C
:10279000D06992F87C105B0984F8783041F64B538D
:1027A000984294BF04200020D5E920230139C4E9D0
:1027B0001C23072900F2E280DFE811F08E000800F8
:1027C000E0008B00E000E000E0000A004FF00108AC
:1027D0000022009259494346FB2207F0BDFF47B94A
:1027E00094F8C1100120FFF745FA0746002800F0D1
:1027F000998009F003FB01279DF80F307BBBB9F1ED
:10280000000F08D094F82430002B59D1B4F80930C7
:102810000133A4F809303EB3B4F805300022013387
:10282000A4F8053084F8C120454804F07BFA0498E8
:1028300040B10FF0F4F8A16A00234372072201307F
:1028400011F056FB059B33B1A16A00221A720C22CB
:10285000059811F04DFB6FB906B0BDE8F08705A9EA
:102860000220FFF7BFFECAE7B4F807300133A4F82F
:102870000730D9E7FFF7BEF906B0BDE8F0872A7F39
:10288000C0F3C0039A42B1467FF45EAF03F0C2FCCE
:1028900000284AD0D4F82CA09AF8003003F00303A3
:1028A000013B012B41D89AF8012094F8C8309A4294
:1028B0003BD994F83D3043F0100384F83D3043E7B2
:1028C000B4F80530B4F807102A8B0B431343A2D099
:1028D0009CE74FF003087BE74FF0000878E708F02B
:1028E00079F8238E42E708F03BF808F01DF8D4F899
:1028F0002CA09AF8011000287FF4E1AE002942D004
:102900009AF800302A7FC3F3C0039A425DD089B29F
:10291000A4F85810D4F8C4000FF003F8D4F82CA091
:10292000A063D4E6FFF754FA66E70DF10F00FFF756
:1029300017F9D4F82CA007E7600D0020C00D002087
:10294000840D00204FF0000A89F815A002F028FE3F
:1029500000284AD0638E43F0080363865146636BB8
:1029600008209847D9F880300133C9F88030D9F869
:10297000843043F10003C9F88430CDE640F2B2312F
:102980000620FEF7DFF9A4F858109EE689F8163005
:102990001946638E43F0100363861020636B9847DB
:1029A000B5E6D4F8BC0004A90EF052FFC0B1D9F8C6
:1029B000803094F824100133C9F88030D9F884307D
:1029C00043F10003C9F8843098E6012384F83E30CF
:1029D000FFF710F940E74FF49D612720FEF7B2F9A9
:1029E0004FF479712720FEF7ADF940F2FB31272033
:1029F000FEF7A8F9091D000069260000E11F00008C
:102A0000611C0000F0B583B00023044601A80193C7
:102A100009F0B8FE019B03F00303002B0BBF182540
:102A200022250F2619260CBF00270A270EF058F87A
:102A300038B1204612F010FB70B905F1610003B007
:102A4000F0BD0DF0A9FF00280CBF3D4635462046DD
:102A500012F002FB0028F0D0204612F0E3FA18B181
:102A600005F15A0003B0F0BD204612F0DFFA00284D
:102A7000F6D105F15000E2E708B54FF45271062097
:102A8000FEF760F92DE9F047002800F0DA800446EF
:102A9000082900F2CB80DFE801F091A92424A5C920
:102AA0001F9CC5000146204612F03BFAD4F83C3189
:102AB00000F1F7059D4240F2BD80E81A322838BF88
:102AC000322003210CF0C2FFC4F83C5106462046D8
:102AD00012F0E3FA002E7AD02046BDE8F04712F05B
:102AE000E0BAFFF78FFFB4F83231A4F840010022BA
:102AF000062B84F8382184F8432100F28C800133BE
:102B0000A4F8323104F59C7528460CF059F80028D9
:102B100000F09B8094F8583103F0FF01002B72D134
:102B2000D4E954026FF000439A4208BFB0F1FF3F6E
:102B300012D02046D4E9526712F0F3F9D4F850319C
:102B4000D4F854219B1B00F1F70062EB07021B1A1B
:102B500062F10002002A53DB94F8100129460CF0C0
:102B600045F900287BD0D4F84851D4F82871D4F81E
:102B70004C61D4F82C81AF4278EB060327D2204673
:102B800012F01AFA50EA010381468A461FD0E81B68
:102B90004A4666EB080153460DF064FDD4E94A321B
:102BA00009FB01F100FB0A11A9FB009013EB0903DB
:102BB000014441EB0201C4E94A3108E006F092F811
:102BC000D4F83C01E7380CF097FE002842D0BDE86D
:102BD000F08790F810010BF0BFFF002384F830312C
:102BE000BDE8F087BDE8F04709F01CB912F022FA01
:102BF00000283FF457AF2046BDE8F04712F04DBA29
:102C0000204606F077F894F810010BF0A5FF00239A
:102C100084F83031A7E7D4F8143173B1012384F874
:102C200042316FE7F2213020FEF78CF8F621302098
:102C3000FEF788F8C4F83C51DDE7022384F84231FE
:102C400060E7D2213020FEF77DF840F29F6130200E
:102C5000FEF778F840F281213020FEF773F840F259
:102C6000A3613020FEF76EF82DE9F04F04468BB0DB
:102C70000020029394F87D30069017460E46059387
:102C800010F05AFA94F8F1220B2A00F28583B34B24
:102C900033F8125094F8C7200392284487F00102B9
:102CA00085B204922FB3B4F880A3B4F8C090A6EB19
:102CB0000A0A0FFA8AFAA6EB0909BAF1000F0FFA0D
:102CC00089F904F55678C0F2D581A54ADDF808B037
:102CD000127802F0FF07002A40F0DD8194F83C33BF
:102CE000032B00F26A83DFE813F03F010401A20026
:102CF0003A0094F83C23032AD5D1039A0E2AD2D164
:102D0000B4F8CC23B242CED1B4F80E13B4F8822377
:102D10000A44C4F83823D4F84423C4F83023E269C1
:102D2000C4F83423204607F06DFBD4F8D423E169BE
:102D3000914205D004F1280012F015FCD4F8D423F8
:102D4000E261D4F8D023E263B4F8CE23A4F84020A3
:102D5000D4F8D8236262022284F83C23A3E7E56911
:102D6000029B05FB0AF2002B40F0318294F85333AA
:102D7000002B00F0DC827A4B5868D4F84433EB1A0D
:102D8000A3F5AD75D4F87833D71B854228BF054627
:102D90000697DF19D4F87C33C4F8085343F10003D5
:102DA000C4F86C33002384F858337423A4F86033D8
:102DB000C4F8687304F1440011F02AF9D4E9DA2365
:102DC0000544C4E9DE23C4F85C53A4F8806306F02C
:102DD0008DFC20B1D4F85C331E33C4F85C33B4F8F6
:102DE000F812039A8E1B002336B29E4284F8623397
:102DF000C4BF022384F862330E2A029A00F0618273
:102E0000002A40F0618294F83C33002B40F07D8230
:102E100094F8840341460BF0E9FF002800F0BE82DD
:102E2000049B84F8503300200BB0BDE8F08FE36BB7
:102E3000D4F834032946184409F082FF2946C4F81F
:102E40004003E069474D09F07BFFE26994F87D900B
:102E500041F64B539A4298BF0230C4F844034846A7
:102E600009F06EFB00F55F4019F00C0F00F1410016
:102E7000A5FB003014BF2821002101EB9011803107
:102E8000204611F05DF9B4F80E33002B00F0768186
:102E9000D4F83433E26BD4F8405313445B1B0693ED
:102EA000D4F83033D4F8382394F87DA002FB0355CE
:102EB000B4F8403030351AF00C0F03EB450540F004
:102EC0005481504609F03CFB264B00F52340A130CD
:102ED000A3FB00304FEA9019504609F029FB4D44FE
:102EE0001F4B069A284458600123E56984F83C3357
:102EF00043E7D4F84403E269D4F84033D4F83813F4
:102F0000B4F80E53121A0AFB02F20692D4F83023D8
:102F100094F87DA03033A94402FB0133C943B4F8CF
:102F20004050894400FB09301AF00C0F05EB4005B6
:102F300040F02181504609F003FB0A4B00F5234085
:102F4000A130A3FB00304FEA9019504609F0F0FA87
:102F50004D44034B069A2844586089E01C5E0300E8
:102F60002C0E0020D34D621094F87D1094F80603C7
:102F7000DFF828A310F07EFB8146E06B2946484429
:102F800009F0DEFE2946C4F84003E06909F0D8FEE6
:102F9000E26941F64B539A4298BF0230C4F84403A9
:102FA00007A908A808F032FF079B0093D4E9DE01C7
:102FB000DDE908230CF0CEFF94F87D30059305463B
:102FC000184609F0BDFA059B00F55F4013F00C0FA1
:102FD00000F1410014BF28210021AAFB003001EBC1
:102FE00090118031204611F0ABF8D4F88833E26BB1
:102FF00094F87D000693059209F0A2FA4AF2A13BEB
:1030000000EB0B03AAFB0331069B059AD4F840039F
:10301000203B13441B1A4B445B1BA3EB91130693F9
:1030200094F87D30B4F8409000F1300513F00C0FA7
:103030004FEA450509F1220940F09A8018460593A8
:1030400009F07EFA8344AAFB0B3A059B4FEA9A1AD1
:10305000184609F06DFA4D44914B069A55442844A0
:103060005860D4F88833D31AB3F5D87F40F29B81E7
:10307000E56982E6002284F85323894AD4E9DC0119
:103080001278C4E9DE01CA464FF0010B02F0FF07D7
:10309000002A3FF423AE09F0FDFE074600283FF466
:1030A0001DAEB4F82423012A40F2F58094F83C23A5
:1030B000022A00F0F08094F85223002A40F0EB80BE
:1030C000E06941F64B57B84240F2438194F8F1224F
:1030D0000B2A00F26181734B33F8125094F83C33A1
:1030E00005F5C865012BADB240F0378194F8CA30C0
:1030F000032B40F04681D4F83403E76B074429469C
:1031000009F01EFE03463846D4F83073C4F8303355
:10311000DB1BD4F83873294603FB07F709F010FED0
:10312000D4F84033C4F84003C01A07442946E06984
:1031300009F006FEE36941F64B529342B4F80E33B0
:10314000D4F838234B446FEA0202A3EB0A0313447A
:10315000D4F8442398BF0230C4F84403801A00FB1B
:103160000377012384F85233B8E54FF06509B3E6DD
:103170004FF0650A6CE74FF06509E6E6029B002B0D
:103180003FF486AE94F87DB0D4F83423E36B584610
:1031900002EB030909F0D4F9D4F88C338246A9F183
:1031A000200958469944D4F840B309F0C1F90AF50A
:1031B000234AA9EB0B090AF1A10AA9EB0009A5FB17
:1031C0000A35A9EB95150695D4F8405368E6B4F88E
:1031D0000E33002B7FF4CAAD84F85333D4F8441374
:1031E00001FB1A2A94F8C620CDF818A0262A5BD035
:1031F00094F8C720262A57D0BBF1000F27D033BB45
:10320000D4F88CB3BBF1000F00F0D28094F87D00AD
:1032100010F00C0F40F09B8009F092F91F4DD4F88C
:103220008CB300F52340A130A5FB0035AD0994F81F
:103230007D00103509F07CF9AAF1100A0AEB0B02A7
:10324000551B2D1AB4F80E33D4F84413069505987F
:1032500003EB090B01FB0BFB0BF1300B10F00C0F18
:103260004FEA4B0B61D109F06BF90C4D00F523408F
:10327000A130A5FB00308509059809F059F9084BE4
:10328000054405EB0B00E569586041F64B539D4240
:1032900050D9069A71E5002720E500BFD34D621092
:1032A0002C0E00201C5E0300B4F8CC23B21A1204CA
:1032B000A2D4059894F8CF23002A18BF1046059091
:1032C0009AE7002A3FF4A4ADB4F82423D2B1B4F8AD
:1032D000260394F8281300FB01118A4200F1010033
:1032E0007FF796AD002B3FF493AD002384F8623353
:1032F000A4F8260302F094FF00F00700013084F8E0
:10330000280385E5A4F8262382E5E169D4F844334F
:103310004046C91A10F053F980B200283FF478AD46
:10332000149BC3B1188001207EE56525A4E7B4F89D
:103330000E3353E7234A284606AB594610F0B8F936
:10334000214B84F85303069A5868E56915E57525FD
:1033500070E71746C2E4012066E5294609F0F0FC53
:10336000E369BB42B4F80E73D4F8443398BF02301B
:103370004F44A7EB0A07C4F84403C01A00FB07F741
:10338000EFE694F87D1094F80603E76B10F072F9FD
:103390000744D4F83403B2E6FFF76EFB40F2A351C2
:1033A0003020FDF7CFFC40F2F2413020FDF7CAFC9F
:1033B00040F244513020FDF7C5FC40F25951302015
:1033C000FDF7C0FC300E00202C0E00202DE9F0434C
:1033D00085B0002800F05B810446082900F23D8199
:1033E000DFE811F08900E9000900090071003B01E4
:1033F00076007E00370112F08AFBD4E9DC23801AC4
:1034000061EB0301012871F10003C0F24E816FF0FE
:103410000102002382428B41C0F24281E3690BB179
:10342000B0FBF3F394F8C7200E2A00F00B81B4F838
:10343000C010B4F84E230B449BB2D11A090454BFF8
:10344000531C01339BB2A4F84E3394F85133B4F8B3
:103450004E1323B9B4F8FC328B4200F00B81B4F860
:10346000FC20B4F8C030B4F8FA001344013BB4F8BF
:1034700082231B1A9EB2531C721A1204A4F88233C0
:1034800000F1B4800DF10E05002300951A46204688
:10349000FFF7EAFB002840F09380D4F884303BB378
:1034A000B4F8F620B4F84E339B1A1BB2002B1FDD84
:1034B000B4F888100B44013BB3FBF1F313FB012379
:1034C000A4F8F63014E005B0BDE8F04308F0AABC5B
:1034D000012009F0FFFB05B0BDE8F043FFF766B837
:1034E00090F83C33042B40F0E580002380F83C3317
:1034F00005B0BDE8F08390F850330022C0F88C236B
:10350000002B00F08E80B0F84E23B0F8C0309A4205
:1035100000F0B580D31AA0F8FE32A0F8C020D4E99C
:10352000DA232046C4E9DC2306F04AFE94F803338C
:10353000002BDDD094F87D20E569D4F84433DFF822
:103540007C8112F00C0F14BF4FF4F0794FF4DC794A
:103550009D4288BFED1A98F8083098BF0025002BCF
:103560007FD004F14400D4F8087310F051FD0744F3
:1035700002200CF01BFAED1B25EAE575854228BFF9
:103580000546022128460CF061FA00B92F444A464C
:103590003946204610F0BCFDE269D4F80833C8F87B
:1035A0000C00D0180CF0A8F90028A1D140F2AA31E3
:1035B0003020FDF7C7FB05B0BDE8F04311F020BF98
:1035C000012868D1B4F84E13B4F8F8228B1A13F41A
:1035D000004FBDF80E30194489B2A6EB01032CD17F
:1035E0001BB2002BA4F84E13BFF64EAF94F8CA30AE
:1035F0003349002B0CBF3E23082384F8E93004F143
:10360000E00010F081FC204611F0FCFE002384F85D
:103610003C3394F884030BF09FFA202384F884331E
:1036200066E7B0F84C33B0F8C010B0F84C23A0F8FF
:10363000C0205B1AA0F8FE3271E71B0416D4A4F870
:103640004E1321E7B4F84E13013189B2A4F84E139A
:1036500005E7C6213020FDF775FBCA213020FDF7B4
:1036600071FB636C9D4228BF1D467AE7B31A1BB2FB
:103670001146B6E7013189B2A4F84E13EFE6B0F86F
:10368000FC32A0F8C0309B1AA0F8FE3247E79C211C
:103690003020FDF757FB4FF4CC613020FDF752FB93
:1036A00040F221613020FDF74DFB4FF4C461302022
:1036B000FDF748FBC0213020FDF744FB2C0E002015
:1036C000C96700002DE9F0470026054680F818611B
:1036D000D0F814010127D5E9528982B080F8062379
:1036E0008A4685F83061394685F8317102F0B0F9C3
:1036F000D5F81441C4E9DC8995F8103184F8843395
:10370000C4E9DE89C4F888A384F83C63A4F8806324
:1037100033460096324631462046FFF7A5FAC8B92F
:1037200084F83C73C4F83803C4F83003A4F84E039B
:10373000A4F84C0384F85103B4F8C030A4F8820311
:10374000013BA4F8C03007F0A3FE02B0BDE8F0478B
:103750000BF030B840F221213020FDF7F3FA00BF22
:10376000D0F81401704700BF2DE9F04385B0002365
:103770000322CDE9003301268DF806206846FDF7C7
:10378000DDFF044620BB009D95F83031002BF5D0BD
:1037900085F858610121284611F085FC95F83031F3
:1037A000002BEBD095F810010BF02CFE95F81001D2
:1037B0000CF076FA95F810010BF0CEF900283CD009
:1037C00085F830416846FDF7B9FF04460028DAD095
:1037D000DFF87C80012388F81030002502264FF6A0
:1037E000FF771AE0029BE3B193F88423202A18D0D4
:1037F0001888B8421BD00221FDF766FF814608B346
:1038000090F884030CF04CFA99F8840389F83C434F
:103810000BF0A2F9202389F88433CDE902558DF805
:103820000E6002A8FDF78AFF04460028DAD00020C7
:1038300088F8100005B0BDE8F08340F20D2130207B
:10384000FDF780FA40F229113020FDF77BFA00BF26
:103850002C0E0020054B0022012142F210701A723A
:10386000588219701A74FFF77FBF00BF2C0E00201A
:1038700090F83031002B40F0A3802DE9F041044650
:103880000F4601465648154603F0FF080BF038F97D
:10389000202806466DD04146502204F588700CF071
:1038A000F7FF012384F81061C4F8147184F83031F3
:1038B00037B102F0CDFC00F00700013087F8280393
:1038C0002046FFF79FF800270223A4F84001A4F840
:1038D000423184F8387109F063FAB4F840619D36DA
:1038E00006442046B6B211F0A5FB002844D00FF0E4
:1038F00023FC00F5CD6189B2284609F021FA28445D
:10390000C4F83C0112F003F9301841F1000101261E
:10391000C4F84801C4F84C1184F81861E7842046C3
:1039200011F09EFB002843D03146204611F0F9FAF1
:10393000A5F2F3452D1AC4F81C514FF0FF326FF079
:103940000043C4E9542394F8100104F59C710BF072
:103950004DFA00283ED0D4E9522300252046C4E980
:103960004A23A4F83251294611F09DFB2846BDE8B0
:10397000F0810C20BDE8F0810146204611F0D1FA1B
:10398000184FF730C4F83C01788A08B1E08CC8B908
:10399000064412F0BCF8361841F10001C4E9526146
:1039A000002DCAD0AE1941F10001C4E95461CAE743
:1039B000304611F061FCF73D2D1AC4F81C51BCE7EC
:1039C0000C20704702F044FC7B8AB0FBF3F202FB50
:1039D0001300DDE740F2EF113020FDF7B3F900BF2F
:1039E000852A00002C0E002090F830310BB9002001
:1039F000704710B50121044680F8581111F053FBAF
:103A000094F830310BB9002010BD94F810010BF080
:103A1000F9FC94F810010CF043F994F810010BF044
:103A20009BF820B1002384F83031002010BD40F213
:103A30000D213020FDF786F9014B1872704700BF49
:103A40002C0E002090F8582182B910B502F0FF0426
:103A500090F8182112B90122104610BDD0E9473163
:103A60009942F9D905F046F92246F5E700221046B9
:103A7000704700BF10B5044607F0AEF9074BDA688F
:103A8000824208D3E16941F64B52914203D9187C36
:103A900080F0010010BD002010BD00BF2C0E0020E2
:103AA00008B54FF4FF7110F05EFBB0F5296F28BF29
:103AB0004FF4296080B208BD90F80333002B66D123
:103AC00070B503F0FF0590F83C33032B84B0044637
:103AD00001D004B070BD12F01AF8D4E9DC23801ACA
:103AE00061EB0301012871F10003F2DB6FF00103C8
:103AF000834275EB01034DDBE369B4F8C020002B72
:103B000046D0B0FBF3F080B2531C184480B2A4F846
:103B10004C03B4F84C23B4F8FC329B1A1BB2002BB4
:103B2000D7DD94F884030BF06DFC0028D1D0FF237F
:103B300084F85133B4F8FC30B4F8C050B4F8FA202B
:103B40001D44013DAD1AB4F84C33ADB2EB1A1A0462
:103B5000BFD40DF10E06B4F84C130096002389B2C1
:103B600001222046FFF780F80028B2D0012816D1A4
:103B7000B4F84C33BDF80E2012FA83F39BB2A4F8CC
:103B80004C33B4F84C33EB1A1B04E4D5A1E770476F
:103B90001846B9E740F2D7513020FDF7D3F84FF47B
:103BA000C2613020FDF7CEF82DE9F047044682B01F
:103BB000052900F2C180DFE801F03D1603131C2344
:103BC000042384F83C3307F063FC0AF0F3FDB4F8F7
:103BD000C020A4F84E230023A4F8823384F8513384
:103BE00002B0BDE8F087032380F83C3302B0BDE8A3
:103BF000F08707F0EBF8C4F88C0302B0BDE8F0875B
:103C000090F87D50284608F09BFC4E4900F55F4037
:103C100015F00C0F00F14100A1FB003014BF28216A
:103C2000002101EB90118031204602B0BDE8F04741
:103C300010F086BAD0F88C339BB9434B1B7C03F051
:103C4000FF02002BBCD1B4F8FC12009201232046E5
:103C5000FFF70AF80028B6D040F2DA613020FDF70D
:103C600071F890F85233002BE7D090F83C33032BD7
:103C7000E3D190F87D900FF05FFA94F8F1320B2BBE
:103C800058D8324AD4F88C5332F81330C61803F59A
:103C9000C86348469FB208F04BFC19F00C0FA5EB27
:103CA0000008B6B248463CD108F04AFCDFF894A0C0
:103CB000D4F8085300F2E733AAFB03234846A8EBE5
:103CC000931808F035FC2D1A484608F039FC00F529
:103CD0002343A133AAFB03239B09EB1A5A08603B39
:103CE000293206FB03F3B3FBF7F36033A2EB530176
:103CF00041454FEA530302D81344434501D209F02A
:103D0000B5FAE069314609F01BF8E26941F64B5318
:103D10009A4298BF02300023C4F8440384F8523317
:103D20008BE7D4F8085308F003FCA8F13C082D1ADF
:103D30006523D2E7FEF7A0FE40F26E713020FDF75A
:103D400001F800BFD34D62102C0E00201C5E030052
:103D5000012A70B5064609D0022A14460D461ED027
:103D60004AB14FF4F3613020FCF7ECFF07F034F870
:103D7000C6F8880370BD07F02FF822460146284692
:103D8000FFF7A0FC0F4995F81001324608F076FFC6
:103D90000028EFD140F281713020FCF7D3FFD0F83A
:103DA000881301222846FFF78DFC064995F810017B
:103DB000324608F063FF0028DCD140F292713020D7
:103DC000FCF7C0FFCD330000F8B5044651B101291E
:103DD00062D1002380F8183107F05AFBBDE8F840A3
:103DE0000AF0E8BCC58C002D4ED12046D4E94A76B5
:103DF00011F0E2F8401941F10001C01946EB01064B
:103E000002230022C4E95206A4F8423184F8382182
:103E10002046FEF7F7FDD4E9525694F85831A4F83D
:103E20004001C4E94A5603F0FF017BB9D4E95402CA
:103E30006FF000439A4208BFB0F1FF3F0FD194F8F2
:103E4000100104F59C710AF0D1FF50B30023A4F8CF
:103E5000323107F01DFBBDE8F8400AF0ABBC20464C
:103E600011F05FF8D4F85031D4F854215B1B00F105
:103E7000F70062EB06021B1A62F10002002ADEDA8A
:103E8000204604F037FFE1E702F0CAF9E58CB0FB09
:103E9000F5F303FB1505A8E74FF4F5613020FCF7B7
:103EA00051FF40F2FA613020FCF74CFF90F83001EE
:103EB000704700BF014B5882704700BF2C0E002096
:103EC00090F85030032B0ED0013B012B01D900207C
:103ED000704790F8510000F0FD00A0F10100B0FA29
:103EE00080F04009704790F85200A0F10100B0FA4C
:103EF00080F04009704700BF253270B592B2054688
:103F00000C461E460DF074FE45B1054A00231560AF
:103F100082F8484082F849601471536470BD00BF54
:103F20004C0E0020014B1870704700BF110000209C
:103F300090F87000003818BF012070472DE9F04755
:103F400082B006460C4615461F460CF0C9FD0028F7
:103F500000F09E804FF096094FF08C08002301A8D6
:103F6000019308F00FFC019B13F0030F18BFC84624
:103F700094F8C690002F40F0988094F81833032BE3
:103F800000F20181DFE803F043027602D4F81CA0BE
:103F9000554600F0CBF9002860D000200346D4F845
:103FA000F022AD18D4F8F42242F100022D1843EBB0
:103FB0000203C4E9BC53C6E904530025A6F80880EF
:103FC000357094F8C63003F0FD020C2A59D0262B28
:103FD00057D0204611F049FA002800F0C88094F824
:103FE0001833012BDAB216BF0223B272B372002368
:103FF000F37204F1440010F00BF8706027B1A9F1DE
:104000000E09B9F1010F55D802B0BDE8F087002DB7
:1040100000F0AF8094F87C205D4B94F87DA033F8DD
:104020001250012384F81833504608F089FA05F23B
:104030009D7558491AF00C0F0544A1FB053514BFB6
:104040002821002101EB951182312046002510F036
:1040500077F8AA4600F06AF900289ED1B4F9140353
:10406000022110F08AF8B4F814331B1AA4F81433A0
:10407000C31794E7D4F820A3032384F818335546D4
:1040800087E7204611F0F1F901250023B372AEE76E
:104090000CF082FC00280BBF4FF07E094FF08D0919
:1040A0004FF074084FF0830858E70121204606F0CE
:1040B00033FA62E7514630460FF081FA87B2204664
:1040C00011F0D3F98046B5B9874214D3B572D4F84C
:1040D000F0320AFB00F29B18D4F8F422336142F16B
:1040E00000027261BAF1000F48D0514630460FF01D
:1040F00066FA404487B23946204606F00DFA00F0D1
:1041000015F9E0B1D6E90430D4F88420C4E9BC3014
:10411000002A3FF479AFB4F8F620B4F8C0309B1A07
:104120001BB2002B7FF770AFB4F888100B44013B33
:10413000B3FBF1F313FB0123A4F8F63064E77F002F
:10414000B7F5803FB4BFB9B24FF6FF71B4F91403AD
:1041500010F013F8B4F814233369121AA4F81423D6
:104160007269C31842EBE07033617061CCE70546B9
:104170008BE740F23B213520FCF7E4FD40F2B5210E
:104180003520FCF7DFFD40F273213520FCF7DAFD26
:104190009C5E0300D34D6210014B5870704700BF06
:1041A000A40E002070B582B004460CF099FCC8B192
:1041B0004FF4E5754FF4E07601A80023019308F071
:1041C000E1FA019B13F0030F0CBF3146294620464C
:1041D0000FF0C9FFB0F5296F28BF4FF4296080B2F6
:1041E00002B070BD0CF0D8FB002840F2C11540F2BF
:1041F000B71604BF4FF4D9754FF4D476DCE700BF8F
:1042000070B5044686B0042900F28580DFE801F02D
:10421000670D03124900042384F8183307F038F9B6
:1042200006B0BDE870400AF0C5BA032380F8183321
:1042300006B070BDC269D0F84033C0F820239A425E
:1042400004D0283011F08FF9D4F84033D4F83C234F
:1042500094F87C0094F87D603149E263B4F8382327
:10426000A4F84020D4F84423E36131F8105062628E
:10427000304608F065F905F29D752A4916F00C0FD5
:104280000544A1FB053514BF2821002101EB951140
:10429000823120460FF054FF022384F8183306B011
:1042A00070BD90F87D6090F87C201D4B304633F84F
:1042B000125008F045F905F29D751A4916F00C0FD9
:1042C0000544A1FB053514BF2821002101EB951100
:1042D0008231204606B0BDE870400FF031BF124B6E
:1042E0001A7802F0FF03002A95D1014601226846A0
:1042F000FFF724FE94F8190369460AF077FD28B108
:10430000B4F8C0300133A4F8C03087E740F2E321AD
:104310003520FCF717FD40F23E313520FCF712FD49
:104320009C5E0300D34D6210A40E0020014B18794F
:10433000704700BFAC0E002008B523211A20FCF7FF
:1043400001FD00BF38B505460C4691F8FB3113B1AD
:1043500091F805328BB9002D50D02B7873B194F8B9
:10436000F0318BB304F1B00011F030F900230022DA
:10437000C4E968230023C4F8A83138BD94F8F231A9
:104380006BB9B4F8AC010221FDF79EF938B104F223
:10439000152100F5AE700DF00BFC00283ED0B4F8EE
:1043A000B0010921FDF7A6F9002844D16B6F002B5D
:1043B000E3D1B4F8AE010821FDF79CF90028DCD068
:1043C00060211A20FCF7BEFC94F8F23103F0FF01E3
:1043D0007BB9B4F8AC01FDF777F950B104F21521BF
:1043E00000F5AE700DF0E4FB18B92B211A20FCF794
:1043F000A9FC4FF6FF73A4F8AC31B3E794F8F2319F
:1044000073B9B4F8AC010221FDF75EF940B104F2D2
:10441000152100F5AE700DF0CBFB08B9FFF78CFF4E
:10442000B4F8B0010921FDF765F90028A5D04E21A7
:104430001A20FCF787FC53211A20FCF783FC00BFED
:1044400090F8F23123B9B0F8AC010221FDF73CB984
:104450000020704738B550B390F8C7302A2B044677
:104460001FD14AB92B2380F8C73094F90831002BAB
:10447000A8BF002017DB38BD1F230D4680F852214E
:1044800080F85331322380F8C7300029EDD0B1F8DD
:10449000AE010821FDF718F968B12946FFF752FF70
:1044A000E3E70C2038BDDA211A20FCF74BFCB321DE
:1044B0001A20FCF747FCD5211A20FCF743FC00BF6B
:1044C000FFF7C8BF014B1868704700BFA00000206D
:1044D00038B50D210546FDF7B9F8A0B1044641F203
:1044E000302200210CF0D4F941F201420123A4F85A
:1044F000A42084F8F230FFF7E5FFC4F81841C4F8AF
:104500002001258038BD3A215320FCF71BFC00BF59
:10451000F0B5070CA7F5AA42144B543A012A03EA56
:1045200090231FD927F4004042F6AA22801A18BF10
:1045300001200022162116461F2487EA060562EA9A
:104540000505013510D0DD03ADB245EA5606E50399
:10455000ADB2013945EA52024FEA53034FEA54041F
:10456000EBD1F0BD0020E4E70020FAE7E0FF3F00D8
:10457000F8B51E468B1F9BB240F67A45AB42074604
:104580001046BDF818203AD8841FA4B2AC428CBFA4
:10459000002401242546A7BB1C4B1B796BB15CB9D9
:1045A0006FF450654B19062B06D86FF45063C4188E
:1045B000062C8CBF002401242546F5B1814223D866
:1045C000B6F5FA7F20D2A2F10A039BB240F67641FB
:1045D0008B4219D80DF059FC013642F21073B6B275
:1045E0005A434643B2EB460F0ED9BDF81C50BDF8F6
:1045F000200085428CBF002501252846F8BD0024F7
:10460000C8E797F88130C9E70025F6E7800F00205A
:10461000304BF0B5B0F87070B0F86E605D880C4645
:1046200011461A88974228BF1746964228BF164659
:104630001B2E85B02ED0B5F5A47F2DD040F64803B3
:104640009D4201AA28BF1D460DF048FCBDF80A3066
:104650009F4228BF1F46BDF80C30E780AB4228BF01
:104660002B462381BDF806309E4228BF1E46BDF86A
:10467000083066809D4228BF1D46A580FF23237019
:10468000E3881B3B9BB2E02B08D94FF4B76139207C
:10469000FCF758FB1B2FCED105B0F0BD63881B3B48
:1046A0009BB2E02B02D940F2BA51F0E72389A3F57F
:1046B000A4739BB240F64812934202D940F2BC5117
:1046C000E5E7A388A3F5A4739BB29342E4D940F233
:1046D000BE51DCE7800F002010B503210020FCF75D
:1046E000F3FF044670B90321FCF7B0FF044620B97C
:1046F00040F21B313920FCF725FB034B93F92810BE
:1047000010F0C5FB204610BD800F0020F7B5114BFF
:104710009C7EDD7E9F8B064614B900F081FD044629
:10472000A5B900F07DFD054614B9092003B0F0BD20
:104730000028FAD0304601A98DF804408DF80550C4
:10474000ADF806700EF092FF0020EFE7002CF1D1DB
:10475000EBE700BFE413002008B50EF055FE01F0B2
:1047600081F800F06BFD0FF0C1FB01F06DFA02F073
:1047700057FB01F09DFA012000F024FD0D4A0E497F
:104780000E48116000231B2153839180D38313842F
:1047900013760B4A8261838080F8293001F1A4717D
:1047A0000122837501600277BDE808401E3010F0D9
:1047B000E0BE00BFE413002003021B00800F0020B6
:1047C000F9000007044B41F64C521B21C3E90222B9
:1047D00019745A61FFF7C0BFE41300207FB5364D4E
:1047E000AB68044640F8443FFFF75AF9064600F02C
:1047F00011FDA4F84E60314E2B7C84F84C3010F043
:10480000200F33681DBFAA886988A4F86E101B2288
:1048100008BFA4F86E20A4F870205BB1012302A8A1
:104820008DF80830039410F081FE336894F98010FD
:1048300020889847224B1A79002A14BF01220022AF
:1048400003F1080384F881200FCB04F18C0686E87D
:104850000F0041F64C5318BF4FF47A73E3612046C2
:10486000FFF754FF064648B120880221FCF742FFBB
:10487000F0B140F27E513920FCF764FA04F12800CF
:1048800010F071FE6B7801932B7800936A88AB88E7
:1048900004F1180104F11400FCF788FF636913B9EF
:1048A00040F28F51E7E7A3691BB94FF4B261E2E729
:1048B0000926304604B070BDE4130020A400002097
:1048C000800F00202DE9F34105460E4610F024FB31
:1048D000002800F0AE80284610F0ACFB30B1B6F8EE
:1048E0000130013B7F2B01D9122404E0284610F04F
:1048F000A5FB20B90C24204602B0BDE8F081284673
:10490000FFF7D4FA0028F5D1284610F0AAFA80461D
:104910000028EFD1284603F053FF0028E4D0B6F872
:104920000170F17842F2107328465F4310F06EFB7D
:1049300004213078FCF7C8FE062104463078FCF7E5
:10494000C3FE002C77D038B141F2F4713920FCF766
:10495000F9F990F8BD800446404E3368002B6CD0C6
:104960004034204610F0D0FD002866D0204610F0DC
:10497000BFFD002861D1B8F1000F08D0384B2046A8
:104980001B689847002858D041F60801DEE73549F2
:104990003368496942462046984700284DD041F681
:1049A0000D01D3E7284610F045FB40B902210DF177
:1049B0000600FCF713FE064658B90D249BE728466F
:1049C00010F04AFB0028F1D1274B1B79002BEDD1C9
:1049D0008AE7002101F03CF8BDF806303380284614
:1049E000314610F04EFB284610F036FBA0B92846A1
:1049F00010F03CFB01463046FFF7F0FE044600286D
:104A00007FF479AF3A4631462846FEF731FF044637
:104A100020B141F6390199E70121ECE7124B1B6BFC
:104A2000002B3FF468AF024606F5B1713046984757
:104A300061E742245FE700288BD1284610F0F2FAA4
:104A400001460028AED13A462846FEF711FF04463B
:104A500000283FF450AF41F6160177E7B000002080
:104A6000AC000020E4130020800F0020B0F90020EB
:104A7000F8B514B292B202F5A0639BB2B3F5206F01
:104A800034D8B0F902301DB29BB203F5A06189B2EF
:104A9000B1F5206F2AD802F2F64189B240F2BE5039
:104AA000814225D803F2F64189B2814220D8002CF8
:104AB000C4BF093214B2002DC4BF09331DB20A208D
:104AC00094FBF0F401F0C8F867B206460A213846B4
:104AD00095FBF1F149B201F0B1F8074B1B684BB1FE
:104AE000A01B40B208B198470020F8BD3020FCE779
:104AF0001120FAE71846F8E7A8000020034B5A886F
:104B000002801B7883700020704700BFE4130020F0
:104B10007FB583781A2B064609D8042B05D90122C4
:104B200002FA03F3324A134205D1122519E0292B68
:104B300001D03B2BF9D13088B0F5706FF5D26946C2
:104B40000EF0B0FC80B968460DF097F9037803F0D9
:104B5000FF05B3B9B3784370FF23037068460FF0C5
:104B60009EF9284604B070BD30880921FCF7ACFDE1
:104B7000044600283AD0B0F8AC0102A90EF092FC2D
:104B800008B10C25EDE7B4F8AE010821FCF79CFD57
:104B9000024620B940F6D6013920FCF7D3F8037855
:104BA0001BB994F8C831032BEBD102A80DF065F9BD
:104BB00090F84A100029E4D194F8F01101F0FF05B3
:104BC0000029DED1B4F8B011A0F84C1094F8B4115B
:104BD00080F84E10127D80F84F20B27880F8502077
:104BE00084F8F021FF2280F84A20BAE70225B8E7CE
:104BF000200038040188A1F11B039BB2E02B0CD8E4
:104C00004288A2F5A4739BB244F24810834204D8B0
:104C1000034B002019805A8070471220704700BF54
:104C2000800F0020034B1A885B880280438000209D
:104C3000704700BF800F002038B50478427885782F
:104C400004F0010352EA030104F0020401D111202F
:104C500038BDBCB9002DFAD0002B08BF144601E0C6
:104C60000024254620460DF03AFA0028EFD02846C9
:104C70000DF035FA0028EAD0054B00209C76DD7651
:104C80009883E5E7002BEBD114461D46EAE700BF09
:104C9000E413002013B5008869460EF003FC18B138
:104CA0000224204602B010BD68460DF0E7FA002845
:104CB000F6D068460DF0E1F8827C03460AB13A244A
:104CC000EFE768460DF0D3F890F86C2002F0FF048F
:104CD000002AF4D190F86320920705D101229A743A
:104CE00068460FF0DCF8DCE70249022264300FF07E
:104CF00011F9D6E7254701002DE9FF410778EF2F8D
:104D000004460D4601D912259CE0B0F80130ADF8FB
:104D10000C309DF80C30D8066CD4990603F00302D1
:104D200065D5002AEFD11A0703D503F06703012BDD
:104D3000E9D163781E0711D42179E278E07942EA5B
:104D40000122617942EA0142A17941EA0021207AF7
:104D500041EA00418A42D6D81F2AD4D9627A013A60
:104D6000062AD0D8A27A032ACDD813F0040102D1A2
:104D7000023A012A03D8E27A012AC4D811B9A27CE6
:104D8000032AC0D813F01001227D43D0012ABAD1E2
:104D9000237E012BB7D800294CD06378D80703D5E0
:104DA00000F0D2F900284CD06378227D03F018017E
:104DB000082959D1022A44D11B0709D4E279A379E1
:104DC00043EA0223227A43EA0243B3F5804F38D8FC
:104DD0001FFA87F803214046FCF776FC06460028B8
:104DE00048D0FFF763F8002850D00C252AE0032AAA
:104DF00099D188E713F0600F85D103F00F0203F01B
:104E00000703052B95D0931E012B92D9002A7FF41E
:104E10007AAF8EE7022A04D103F06F03092B7FF4E7
:104E200072AFA37D013B022B3FF66DAFE37D0F2BED
:104E3000AED968E700F0F4F981070AD4237D022B8C
:104E400004D11125284604B0BDE8F081A37D022BD2
:104E5000F7D000F0E5F942079FD4237D032BF0D073
:104E6000A37D032B99D1ECE7022AA5D0A27E002ACC
:104E7000A2D0E6E703214046FCF7E8FB06460028FF
:104E800040D0214B93F9281010F001F8002138464A
:104E900010F01AFB18BB304610F0C1F821462870FC
:104EA000E074304603F0E4FC637E0546002BC9D075
:104EB0000028C7D1F16C02466846FCF757FDF06C3C
:104EC0002A4601210CF0F3FEF16C68460422FCF73F
:104ED0004DFDF06C2A4629460CF0E9FEB2E7403061
:104EE00010F012FB0028D6D0637813F0330F7FF454
:104EF0000AAF3046A77D10F0B9F80DF08AF8874266
:104F0000C9D072E707259DE7800F002030B50279F0
:104F1000042A8BB0034658D84488B4F5804F54D83F
:104F20002B4810440021027AC578ADF8041042F0F5
:104F3000100242EA4502457B807C8DF80C1042EA63
:104F4000850242EAC00202F01F028DF80420BDF87B
:104F50000420ADF80D201A888DF80F208DF812402E
:104F6000120A240A8DF811108DF814108DF81020F3
:104F70008DF813405A7B8DF815205A798DF816203C
:104F80009A79D3F807008DF81720B3F80B209B7B94
:104F90008DF81E307F238DF81F30012306908DF889
:104FA0002110ADF81C208DF820308DF8223003A898
:104FB0008DF823108DF824108DF825108DF826100B
:104FC00001A9FFF799FE0BB030BD1220FBE700BF2F
:104FD000365F030013B50378044653B1002301A8DC
:104FE000019307F0CFFB019B9B0702D00C2002B07E
:104FF00010BD024B22781A710020F8E7800F0020C4
:105000000278034672B1427862B142881A2A09D9FD
:1050100082881A2A06D9044A006810609B88938007
:105020000020704712207047E4130020024B0268F2
:105030009A600020704700BFE41300200378A3F1BA
:105040000A02112A9DBF024A0020137412207047E1
:10505000E4130020014B187600207047800F0020D9
:10506000014B587600207047800F002008B50520BE
:1050700000F0B4F805F000FA014B024A1A6308BDCB
:10508000800F00201146000008B503F04FFAFEF72C
:10509000E1FBBDE80840014803F032BAB40F00203C
:1050A00008B50EF0AFF9064800F58471FDF726F853
:1050B00002200CF056FDBDE8084000200CF051BD68
:1050C000B40F002008B5074B012283F80A2203F031
:1050D00035FA04F003FBFFF7E3FFBDE8084000F0FA
:1050E00021BF00BFB40F002010B5064C064904F5DF
:1050F00003700DF0DDFF04F504700449BDE81040B5
:105100000DF0D6BFB40F0020B4000020BC0000207A
:1051100010B5094C094904F503700DF0C9FF04F5F9
:10512000047007490DF0C4FF04F505700549BDE89A
:1051300010400DF0BDBF00BFB40F0020CC00002018
:10514000D4000020C4000020014B93F80A027047ED
:10515000B40F002038B5094C0D4600F0DBFED4F842
:105160000C02C4F804510DF09BFFFFF72BFB01F07C
:1051700087F8012384F8183238BD00BFB40F00202F
:10518000014B93F818027047B40F002010B50C4C77
:10519000D4F810020DF084FFD4F814020DF080FF53
:1051A000FFF7DAFA202000F027F82F2000F024F88B
:1051B000262000F021F8002384F8183210BD00BF2B
:1051C000B40F0020014B83F819027047B40F002080
:1051D000014B93F819027047B40F0020C20805492B
:1051E000012300F0070003FA00F08B5C1843885499
:1051F000704700BF18000020C208054900F00700F2
:1052000001238340885C20EA03008854704700BF74
:1052100018000020014BD3E900017047180000205E
:10522000054B1868C0F3C022C0F30020400040EADC
:10523000820040F0010070471800002008B507F018
:10524000A9FD084A002332F82310814205D302EB5E
:1052500083039B78044A137008BD01330C2BF2D1F1
:105260000023F7E78C5F0300CE110020024B187873
:1052700000F00700704700BFCE11002010B5446851
:105280002388A4F80E3284F80D1294F87C000CF0F8
:10529000D1FE84F8100294F87D000CF0CBFE064994
:1052A00084F81102022204F501700EF033FE00238F
:1052B00084F86C3110BD00BF3D31010040680649E3
:1052C0000388A0F80032B0F87430A0F8023200F27F
:1052D000F7100EF019BE00BF533101002DE9F7435E
:1052E000456895F8C73095F8C680242B04460F46CC
:1052F0002CD1C73538460EF0B1FD00284DD03846C8
:105300000EF0A4FD814638460EF0A4FD01460DF0D6
:1053100075FF666848B396F87C30984225D096F8B9
:105320006C21012A0CBF96F86E2196F87820114264
:1053300033D0B8F1220F18D096F87520114214D14D
:1053400053B940F26D110620FBF7FCFCB8F1220FB7
:1053500040F0C480C635CDE7042B01D0042832D1FB
:10536000984294BF00200120B8B948460DF046FF8E
:1053700000284BD096F87D30834247D096F86C31A8
:10538000012B0CBF96F86F3196F8793019EA030FAC
:1053900014BF01230023002B38D1636893F86C21DC
:1053A000012A19D11E212046FFF768FFB8F1220F0C
:1053B00020D1FA786368182A83F8512110D040F27E
:1053C0006D217E20C0E7082BCAD00828C8D098429B
:1053D0002CBF00200120C7E7002283F86C21E5E7FD
:1053E0000A2283F8C62093F80431002B3CD140F206
:1053F0007521E6E7002320462B700EF0ECFE3946BF
:10540000204603B0BDE8F0430EF009BF304601AAC4
:1054100039460DF000FF666880BB96F86C31012BB1
:1054200029D1B6F8C03096F87C10B6F8700106F5B0
:1054300073720DF057FF0646C0B901462046FFF7CC
:105440001DFF2E70636803F1C702954202D100224E
:1054500083F8C720636803F1C70295424FF0000547
:1054600039D120460EF0B7FE002038E063682822CC
:1054700083F8C620E6E786F86C01E3E738460EF0CD
:10548000EBFCA6F8CC036068B0F8CC33B0F8C020D1
:10549000013B9B1A9BB247F6FD72934207D9282322
:1054A00080F8E9300F49E0300EF02EFDD2E790F899
:1054B000C7300E2B02D00B3B012B01D82A23EFE77C
:1054C0009DF8043080F8CE339DF8053080F8CF3356
:1054D00026232B70BEE783F80451C5E7022003B0F2
:1054E000BDE8F083C9670000044B002283F8322036
:1054F0004FF6FF729A86DA861A877047D01100201D
:10550000054B9A8E824201BF002283F832204FF66B
:10551000FF729A86704700BFD0110020014BD886D9
:10552000704700BFD0110020094A0346908E4FF605
:10553000FF71884206D192F83210012905D01A6015
:10554000012070470020186070470020704700BF9E
:10555000D0110020064B93F83220012A1FBF0120F2
:10556000DA8E83F832009A8608BF0020704700BFA9
:10557000D0110020014B1887704700BFD0110020C8
:10558000064B0246198F988E884205D193F8320057
:1055900018B113600120704700207047D01100201F
:1055A000094B998E1A8F914201D0002070474FF617
:1055B000FF729A8693F83220002AF6D0002283F8F0
:1055C00032200120704700BFD0110020054B998E7A
:1055D0001A8F914203BF93F83200B0FA80F040096D
:1055E00001207047D011002050B90A4A134601200B
:1055F00003F8010B0868C2F801008A889A80704796
:10560000012805D1034B0A689A608A88D8719A816B
:10561000704700BF0A12002048B90A4B187880B1C1
:10562000D3F80120B3F805300A608B807047012859
:1056300006D1044BD87920B19A680A609B89F4E7B7
:10564000002070470A12002020B9054B187800F09E
:105650000100704701280ABF014B0020D879F6E706
:105660000A120020F7B500228B888DF80600ADF8ED
:10567000043008680C4B8DF80720019D1C7801460A
:1056800003F5AC73D0B2844201D8082009E0D3E915
:105690000076AE4208BF8F4203F1080302F1010217
:1056A000F0D103B0F0BD00BF1812002030B5094B97
:1056B00001465C78002203F58173D0B2844201D8A0
:1056C000082005E013F8015B8D4202F10102F4D1DC
:1056D00030BD00BF18120020F0B5254D95F8984157
:1056E00089B0224605F2991168460BF059F8214617
:1056F00068460DF0A8FE0446B8B300EB4001C9B2FD
:1057000002A8FBF747FD601E95F8A161C0B2012415
:1057100095F8982105E0731CB3FBF2F102FB1133FD
:10572000DEB206F120030DEB030111F8203C002B43
:10573000F1D100EB400220326A4406EB46032B44D1
:1057400012F8187C83F8A27112F8177C12F8162C44
:1057500083F8A37183F8A42101F8204C0138AB1918
:10576000C0B2FF2883F89941D2D109B0F0BD00BF83
:105770001812002070B5064688B00C46002A4FD09B
:105780002A4A92F8A131D01890F8991121B94FF412
:1057900080712820FBF7D6FA03EB43011144013353
:1057A00091F8A251E57091F8A35191F8A41161719B
:1057B0000021257180F8991192F89811B3FBF1F04E
:1057C00001FB103382F8A13192F8C23123B9184994
:1057D00002F5DD700EF09BFB657905F03F0545F0A5
:1057E000400565710D22002168460BF051F8E37801
:1057F0008DF80F3023798DF80E3004AA0423694602
:1058000030468DF80D500AF035FD9DF81F3023709D
:105810009DF81E3063709DF81D30A37008B070BDF8
:1058200003216018FBF7B6FCD6E700BF1812002072
:10583000D9560000044B5A78824286BF1B1893F851
:105840004A010020704700BF18120020044B5A780C
:10585000824286BF1B1893F842010020704700BFA8
:1058600018120020064B00224FF461711A8083F851
:10587000C32183F8C421A3F8C61183F8C22170475D
:1058800018120020014B83F8C40170471812002041
:10589000014BB3F8C60170471812002030B50A4B0F
:1058A0005C7884420ED9184490F802012B3003EB47
:1058B000C004A5790D7053F830001060A388938060
:1058C000012030BD0020FCE71812002002460748E6
:1058D00010B590F8C34124B1417821B1023004F0F1
:1058E00091FE204610BD0C46FBE700BF18120020B9
:1058F0002DE9F74F2F4C9A466378834280468946BC
:1059000056D9231893F8425185F00105F9B193F85F
:105910004A31E3B945F002070135BAF1000F18D159
:10592000FA070AD5062101FB084104EB081052468C
:1059300001F585718230FFF71DFFBB0734D504EBFD
:105940000810524649460230FFF714FF2CE02F465C
:10595000E3E794F8A1614FF0010B002DE0D0A3190B
:10596000019393F8991199B90092DAB100F058FCBB
:1059700006EB46012144019B81F8A2014FEA102C5D
:10598000009A81F8A3C1000C81F8A40183F899B1B1
:1059900094F898310136B6FBF3F103FB1166F6B2C9
:1059A000013DDAE747F00407384603B0BDE8F08F61
:1059B0000027F9E718120020074B5A78824209D9CC
:1059C0001A1892F842212AB9062202FB003000F58B
:1059D000857070470020704718120020064B5A78D7
:1059E000824281BF1B1893F83A01B0FA80F0400957
:1059F00098BF0020704700BF1812002030B5002467
:105A0000A0F85240B0F8564042F210754C43B4FB37
:105A1000F2F4A0F85640541E05FB0343B3FBF2F327
:105A2000A0F85430094BB3FBF2F30133A0F85A301D
:105A3000B0F84C3005FB0344436CB4FBF2F459431B
:105A40008464B1FBF2F2426430BD00BF005A6202CE
:105A500070B504460D4659BB4FF480620AF018FF3A
:105A6000012384F8CE30492384F81B31042384F8C1
:105A70001C316FF03B0384F81D316F2384F81E3115
:105A80006FF03F0384F81F312B2384F81A31FE2373
:105A900084F856317F2384F8C5301E4BC4F8B030EB
:105AA000202384F8205184F8215184F8843370BD78
:105AB000012922D10023C269A0F80E3380F80333F4
:105AC000154B1344B3FBF2F3C0F8F03040F6B83393
:105AD000A0F8F4301146C38CA830FFF78FFF10F008
